{
  "contractName": "TokemonToken",
  "abi": [
    {
      "inputs": [
        {
          "internalType": "string",
          "name": "_name",
          "type": "string"
        },
        {
          "internalType": "string",
          "name": "_symbol",
          "type": "string"
        }
      ],
      "stateMutability": "nonpayable",
      "type": "constructor"
    },
    {
      "anonymous": false,
      "inputs": [
        {
          "indexed": true,
          "internalType": "address",
          "name": "owner",
          "type": "address"
        },
        {
          "indexed": true,
          "internalType": "address",
          "name": "approved",
          "type": "address"
        },
        {
          "indexed": true,
          "internalType": "uint256",
          "name": "tokenId",
          "type": "uint256"
        }
      ],
      "name": "Approval",
      "type": "event"
    },
    {
      "anonymous": false,
      "inputs": [
        {
          "indexed": true,
          "internalType": "address",
          "name": "owner",
          "type": "address"
        },
        {
          "indexed": true,
          "internalType": "address",
          "name": "operator",
          "type": "address"
        },
        {
          "indexed": false,
          "internalType": "bool",
          "name": "approved",
          "type": "bool"
        }
      ],
      "name": "ApprovalForAll",
      "type": "event"
    },
    {
      "anonymous": false,
      "inputs": [
        {
          "indexed": true,
          "internalType": "address",
          "name": "owner",
          "type": "address"
        },
        {
          "indexed": false,
          "internalType": "uint256",
          "name": "id",
          "type": "uint256"
        },
        {
          "indexed": false,
          "internalType": "uint256",
          "name": "dna",
          "type": "uint256"
        }
      ],
      "name": "NewTokemon",
      "type": "event"
    },
    {
      "anonymous": false,
      "inputs": [
        {
          "indexed": true,
          "internalType": "address",
          "name": "previousOwner",
          "type": "address"
        },
        {
          "indexed": true,
          "internalType": "address",
          "name": "newOwner",
          "type": "address"
        }
      ],
      "name": "OwnershipTransferred",
      "type": "event"
    },
    {
      "anonymous": false,
      "inputs": [
        {
          "indexed": true,
          "internalType": "address",
          "name": "from",
          "type": "address"
        },
        {
          "indexed": true,
          "internalType": "address",
          "name": "to",
          "type": "address"
        },
        {
          "indexed": true,
          "internalType": "uint256",
          "name": "tokenId",
          "type": "uint256"
        }
      ],
      "name": "Transfer",
      "type": "event"
    },
    {
      "inputs": [
        {
          "internalType": "address",
          "name": "to",
          "type": "address"
        },
        {
          "internalType": "uint256",
          "name": "tokenId",
          "type": "uint256"
        }
      ],
      "name": "approve",
      "outputs": [],
      "stateMutability": "nonpayable",
      "type": "function"
    },
    {
      "inputs": [
        {
          "internalType": "address",
          "name": "owner",
          "type": "address"
        }
      ],
      "name": "balanceOf",
      "outputs": [
        {
          "internalType": "uint256",
          "name": "",
          "type": "uint256"
        }
      ],
      "stateMutability": "view",
      "type": "function"
    },
    {
      "inputs": [
        {
          "internalType": "string",
          "name": "_name",
          "type": "string"
        }
      ],
      "name": "createRandomTokemon",
      "outputs": [],
      "stateMutability": "payable",
      "type": "function"
    },
    {
      "inputs": [
        {
          "internalType": "uint256",
          "name": "tokenId",
          "type": "uint256"
        }
      ],
      "name": "getApproved",
      "outputs": [
        {
          "internalType": "address",
          "name": "",
          "type": "address"
        }
      ],
      "stateMutability": "view",
      "type": "function"
    },
    {
      "inputs": [
        {
          "internalType": "address",
          "name": "owner",
          "type": "address"
        },
        {
          "internalType": "address",
          "name": "operator",
          "type": "address"
        }
      ],
      "name": "isApprovedForAll",
      "outputs": [
        {
          "internalType": "bool",
          "name": "",
          "type": "bool"
        }
      ],
      "stateMutability": "view",
      "type": "function"
    },
    {
      "inputs": [],
      "name": "name",
      "outputs": [
        {
          "internalType": "string",
          "name": "",
          "type": "string"
        }
      ],
      "stateMutability": "view",
      "type": "function"
    },
    {
      "inputs": [],
      "name": "owner",
      "outputs": [
        {
          "internalType": "address",
          "name": "",
          "type": "address"
        }
      ],
      "stateMutability": "view",
      "type": "function"
    },
    {
      "inputs": [
        {
          "internalType": "uint256",
          "name": "tokenId",
          "type": "uint256"
        }
      ],
      "name": "ownerOf",
      "outputs": [
        {
          "internalType": "address",
          "name": "",
          "type": "address"
        }
      ],
      "stateMutability": "view",
      "type": "function"
    },
    {
      "inputs": [],
      "name": "renounceOwnership",
      "outputs": [],
      "stateMutability": "nonpayable",
      "type": "function"
    },
    {
      "inputs": [
        {
          "internalType": "address",
          "name": "from",
          "type": "address"
        },
        {
          "internalType": "address",
          "name": "to",
          "type": "address"
        },
        {
          "internalType": "uint256",
          "name": "tokenId",
          "type": "uint256"
        }
      ],
      "name": "safeTransferFrom",
      "outputs": [],
      "stateMutability": "nonpayable",
      "type": "function"
    },
    {
      "inputs": [
        {
          "internalType": "address",
          "name": "from",
          "type": "address"
        },
        {
          "internalType": "address",
          "name": "to",
          "type": "address"
        },
        {
          "internalType": "uint256",
          "name": "tokenId",
          "type": "uint256"
        },
        {
          "internalType": "bytes",
          "name": "_data",
          "type": "bytes"
        }
      ],
      "name": "safeTransferFrom",
      "outputs": [],
      "stateMutability": "nonpayable",
      "type": "function"
    },
    {
      "inputs": [
        {
          "internalType": "address",
          "name": "operator",
          "type": "address"
        },
        {
          "internalType": "bool",
          "name": "approved",
          "type": "bool"
        }
      ],
      "name": "setApprovalForAll",
      "outputs": [],
      "stateMutability": "nonpayable",
      "type": "function"
    },
    {
      "inputs": [
        {
          "internalType": "bytes4",
          "name": "interfaceId",
          "type": "bytes4"
        }
      ],
      "name": "supportsInterface",
      "outputs": [
        {
          "internalType": "bool",
          "name": "",
          "type": "bool"
        }
      ],
      "stateMutability": "view",
      "type": "function"
    },
    {
      "inputs": [],
      "name": "symbol",
      "outputs": [
        {
          "internalType": "string",
          "name": "",
          "type": "string"
        }
      ],
      "stateMutability": "view",
      "type": "function"
    },
    {
      "inputs": [
        {
          "internalType": "uint256",
          "name": "",
          "type": "uint256"
        }
      ],
      "name": "tokemonToOwner",
      "outputs": [
        {
          "internalType": "address",
          "name": "",
          "type": "address"
        }
      ],
      "stateMutability": "view",
      "type": "function"
    },
    {
      "inputs": [
        {
          "internalType": "uint256",
          "name": "",
          "type": "uint256"
        }
      ],
      "name": "tokemons",
      "outputs": [
        {
          "internalType": "string",
          "name": "name",
          "type": "string"
        },
        {
          "internalType": "uint256",
          "name": "id",
          "type": "uint256"
        },
        {
          "internalType": "uint256",
          "name": "dna",
          "type": "uint256"
        },
        {
          "internalType": "uint32",
          "name": "level",
          "type": "uint32"
        },
        {
          "internalType": "uint8",
          "name": "rarity",
          "type": "uint8"
        }
      ],
      "stateMutability": "view",
      "type": "function"
    },
    {
      "inputs": [
        {
          "internalType": "uint256",
          "name": "tokenId",
          "type": "uint256"
        }
      ],
      "name": "tokenURI",
      "outputs": [
        {
          "internalType": "string",
          "name": "",
          "type": "string"
        }
      ],
      "stateMutability": "view",
      "type": "function"
    },
    {
      "inputs": [
        {
          "internalType": "address",
          "name": "from",
          "type": "address"
        },
        {
          "internalType": "address",
          "name": "to",
          "type": "address"
        },
        {
          "internalType": "uint256",
          "name": "tokenId",
          "type": "uint256"
        }
      ],
      "name": "transferFrom",
      "outputs": [],
      "stateMutability": "nonpayable",
      "type": "function"
    },
    {
      "inputs": [
        {
          "internalType": "address",
          "name": "newOwner",
          "type": "address"
        }
      ],
      "name": "transferOwnership",
      "outputs": [],
      "stateMutability": "nonpayable",
      "type": "function"
    },
    {
      "inputs": [
        {
          "internalType": "uint256",
          "name": "_fee",
          "type": "uint256"
        }
      ],
      "name": "updateFee",
      "outputs": [],
      "stateMutability": "nonpayable",
      "type": "function"
    },
    {
      "inputs": [],
      "name": "withdraw",
      "outputs": [],
      "stateMutability": "payable",
      "type": "function"
    },
    {
      "inputs": [],
      "name": "getLips",
      "outputs": [
        {
          "components": [
            {
              "internalType": "string",
              "name": "name",
              "type": "string"
            },
            {
              "internalType": "uint256",
              "name": "id",
              "type": "uint256"
            },
            {
              "internalType": "uint256",
              "name": "dna",
              "type": "uint256"
            },
            {
              "internalType": "uint32",
              "name": "level",
              "type": "uint32"
            },
            {
              "internalType": "uint8",
              "name": "rarity",
              "type": "uint8"
            }
          ],
          "internalType": "struct TokemonFactory.Tokemon[]",
          "name": "",
          "type": "tuple[]"
        }
      ],
      "stateMutability": "view",
      "type": "function"
    },
    {
      "inputs": [
        {
          "internalType": "address",
          "name": "_owner",
          "type": "address"
        }
      ],
      "name": "getOwnerLips",
      "outputs": [
        {
          "components": [
            {
              "internalType": "string",
              "name": "name",
              "type": "string"
            },
            {
              "internalType": "uint256",
              "name": "id",
              "type": "uint256"
            },
            {
              "internalType": "uint256",
              "name": "dna",
              "type": "uint256"
            },
            {
              "internalType": "uint32",
              "name": "level",
              "type": "uint32"
            },
            {
              "internalType": "uint8",
              "name": "rarity",
              "type": "uint8"
            }
          ],
          "internalType": "struct TokemonFactory.Tokemon[]",
          "name": "",
          "type": "tuple[]"
        }
      ],
      "stateMutability": "view",
      "type": "function"
    },
    {
      "inputs": [
        {
          "internalType": "uint256",
          "name": "_lipId",
          "type": "uint256"
        }
      ],
      "name": "levelUp",
      "outputs": [],
      "stateMutability": "nonpayable",
      "type": "function"
    }
  ],
  "bytecode": "0x6080604052662386f26fc100006008553480156200001c57600080fd5b506040516200250a3803806200250a8339810160408190526200003f9162000230565b8181620000556200004f6200008b565b6200008f565b81516200006a906001906020850190620000df565b50805162000080906002906020840190620000df565b5050505050620002ea565b3390565b600080546001600160a01b038381166001600160a01b0319831681178455604051919092169283917f8be0079c531659141344cd1fd0a4f28419497f9722a3daafe3b4186f6b6457e09190a35050565b828054620000ed9062000297565b90600052602060002090601f0160209004810192826200011157600085556200015c565b82601f106200012c57805160ff19168380011785556200015c565b828001600101855582156200015c579182015b828111156200015c5782518255916020019190600101906200013f565b506200016a9291506200016e565b5090565b5b808211156200016a57600081556001016200016f565b600082601f83011262000196578081fd5b81516001600160401b0380821115620001b357620001b3620002d4565b6040516020601f8401601f1916820181018381118382101715620001db57620001db620002d4565b6040528382528584018101871015620001f2578485fd5b8492505b83831015620002155785830181015182840182015291820191620001f6565b838311156200022657848185840101525b5095945050505050565b6000806040838503121562000243578182fd5b82516001600160401b03808211156200025a578384fd5b620002688683870162000185565b935060208501519150808211156200027e578283fd5b506200028d8582860162000185565b9150509250929050565b600281046001821680620002ac57607f821691505b60208210811415620002ce57634e487b7160e01b600052602260045260246000fd5b50919050565b634e487b7160e01b600052604160045260246000fd5b61221080620002fa6000396000f3fe60806040526004361061014b5760003560e01c806383b5daf7116100b6578063a22cb4651161006f578063a22cb4651461039e578063b88d4fde146103be578063c87b56dd146103de578063ddc538f0146103fe578063e985e9c514610411578063f2fde38b146104315761014b565b806383b5daf7146102e15780638c0b9c54146103035780638da5cb5b146103235780639012c4a81461033857806395d89b41146103585780639854c1d01461036d5761014b565b80633ccfd60b116101085780633ccfd60b1461023757806342842e0e1461023f5780636352211e1461025f57806370a082311461027f578063715018a6146102ac57806377870818146102c15761014b565b806301ffc9a71461015057806306fdde0314610186578063081812fc146101a8578063095ea7b3146101d55780630ce90ec2146101f757806323b872dd14610217575b600080fd5b34801561015c57600080fd5b5061017061016b3660046119ad565b610451565b60405161017d9190611baa565b60405180910390f35b34801561019257600080fd5b5061019b610499565b60405161017d9190611bb5565b3480156101b457600080fd5b506101c86101c3366004611a2b565b61052b565b60405161017d9190611abe565b3480156101e157600080fd5b506101f56101f0366004611984565b610577565b005b34801561020357600080fd5b506101f5610212366004611a2b565b61060f565b34801561022357600080fd5b506101f5610232366004611896565b61069d565b6101f56106d5565b34801561024b57600080fd5b506101f561025a366004611896565b61075a565b34801561026b57600080fd5b506101c861027a366004611a2b565b610775565b34801561028b57600080fd5b5061029f61029a36600461184a565b6107aa565b60405161017d919061206e565b3480156102b857600080fd5b506101f56107ee565b3480156102cd57600080fd5b506101c86102dc366004611a2b565b610839565b3480156102ed57600080fd5b506102f6610854565b60405161017d9190611b0f565b34801561030f57600080fd5b506102f661031e36600461184a565b610980565b34801561032f57600080fd5b506101c8610b78565b34801561034457600080fd5b506101f5610353366004611a2b565b610b87565b34801561036457600080fd5b5061019b610bcb565b34801561037957600080fd5b5061038d610388366004611a2b565b610bda565b60405161017d959493929190611bc8565b3480156103aa57600080fd5b506101f56103b936600461194a565b610cb7565b3480156103ca57600080fd5b506101f56103d93660046118d1565b610d85565b3480156103ea57600080fd5b5061019b6103f9366004611a2b565b610dc4565b6101f561040c3660046119e5565b610e47565b34801561041d57600080fd5b5061017061042c366004611864565b610e62565b34801561043d57600080fd5b506101f561044c36600461184a565b610e90565b60006001600160e01b031982166380ac58cd60e01b148061048257506001600160e01b03198216635b5e139f60e01b145b80610491575061049182610efe565b90505b919050565b6060600180546104a8906120f4565b80601f01602080910402602001604051908101604052809291908181526020018280546104d4906120f4565b80156105215780601f106104f657610100808354040283529160200191610521565b820191906000526020600020905b81548152906001019060200180831161050457829003601f168201915b5050505050905090565b600061053682610f17565b61055b5760405162461bcd60e51b815260040161055290611ec3565b60405180910390fd5b506000908152600560205260409020546001600160a01b031690565b600061058282610775565b9050806001600160a01b0316836001600160a01b031614156105b65760405162461bcd60e51b815260040161055290611fdc565b806001600160a01b03166105c8610f34565b6001600160a01b031614806105e457506105e48161042c610f34565b6106005760405162461bcd60e51b815260040161055290611d9e565b61060a8383610f38565b505050565b3361061982610775565b6001600160a01b03161461062c57600080fd5b60006009828154811061064f57634e487b7160e01b600052603260045260246000fd5b6000918252602082206003600490920201908101805491935063ffffffff9091169161067a8361214a565b91906101000a81548163ffffffff021916908363ffffffff160217905550505050565b6106ae6106a8610f34565b82610fa6565b6106ca5760405162461bcd60e51b81526004016105529061201d565b61060a83838361102b565b6106dd610f34565b6001600160a01b03166106ee610b78565b6001600160a01b0316146107145760405162461bcd60e51b815260040161055290611f0f565b600061071e610b78565b6040519091506001600160a01b038216904780156108fc02916000818181858888f19350505050158015610756573d6000803e3d6000fd5b5050565b61060a83838360405180602001604052806000815250610d85565b6000818152600360205260408120546001600160a01b0316806104915760405162461bcd60e51b815260040161055290611e45565b60006001600160a01b0382166107d25760405162461bcd60e51b815260040161055290611dfb565b506001600160a01b031660009081526004602052604090205490565b6107f6610f34565b6001600160a01b0316610807610b78565b6001600160a01b03161461082d5760405162461bcd60e51b815260040161055290611f0f565b6108376000611158565b565b600a602052600090815260409020546001600160a01b031681565b60606009805480602002602001604051908101604052809291908181526020016000905b8282101561097757838290600052602060002090600402016040518060a00160405290816000820180546108ab906120f4565b80601f01602080910402602001604051908101604052809291908181526020018280546108d7906120f4565b80156109245780601f106108f957610100808354040283529160200191610924565b820191906000526020600020905b81548152906001019060200180831161090757829003601f168201915b50505091835250506001828101546020808401919091526002840154604084015260039093015463ffffffff81166060840152640100000000900460ff1660809092019190915291835292019101610878565b50505050905090565b6060600061098d836107aa565b67ffffffffffffffff8111156109b357634e487b7160e01b600052604160045260246000fd5b6040519080825280602002602001820160405280156109ec57816020015b6109d96116f2565b8152602001906001900390816109d15790505b5090506000805b600954811015610b6f57846001600160a01b0316610a1082610775565b6001600160a01b03161415610b5d5760098181548110610a4057634e487b7160e01b600052603260045260246000fd5b90600052602060002090600402016040518060a0016040529081600082018054610a69906120f4565b80601f0160208091040260200160405190810160405280929190818152602001828054610a95906120f4565b8015610ae25780601f10610ab757610100808354040283529160200191610ae2565b820191906000526020600020905b815481529060010190602001808311610ac557829003601f168201915b5050509183525050600182015460208201526002820154604082015260039091015463ffffffff81166060830152640100000000900460ff166080909101528351849084908110610b4357634e487b7160e01b600052603260045260246000fd5b60200260200101819052508180610b599061212f565b9250505b80610b678161212f565b9150506109f3565b50909392505050565b6000546001600160a01b031690565b610b8f610f34565b6001600160a01b0316610ba0610b78565b6001600160a01b031614610bc65760405162461bcd60e51b815260040161055290611f0f565b600855565b6060600280546104a8906120f4565b60098181548110610bea57600080fd5b9060005260206000209060040201600091509050806000018054610c0d906120f4565b80601f0160208091040260200160405190810160405280929190818152602001828054610c39906120f4565b8015610c865780601f10610c5b57610100808354040283529160200191610c86565b820191906000526020600020905b815481529060010190602001808311610c6957829003601f168201915b50505050600183015460028401546003909401549293909290915063ffffffff811690640100000000900460ff1685565b610cbf610f34565b6001600160a01b0316826001600160a01b03161415610cf05760405162461bcd60e51b815260040161055290611d1b565b8060066000610cfd610f34565b6001600160a01b03908116825260208083019390935260409182016000908120918716808252919093529120805460ff191692151592909217909155610d41610f34565b6001600160a01b03167f17307eab39ab6107e8899845ad3d59bd9653f200f220920489ca2b5937696c3183604051610d799190611baa565b60405180910390a35050565b610d96610d90610f34565b83610fa6565b610db25760405162461bcd60e51b81526004016105529061201d565b610dbe848484846111a8565b50505050565b6060610dcf82610f17565b610deb5760405162461bcd60e51b815260040161055290611f8d565b6000610df56111db565b90506000815111610e155760405180602001604052806000815250610e40565b80610e1f846111ed565b604051602001610e30929190611a6f565b6040516020818303038152906040525b9392505050565b600854341015610e5657600080fd5b610e5f81611308565b50565b6001600160a01b03918216600090815260066020908152604080832093909416825291909152205460ff1690565b610e98610f34565b6001600160a01b0316610ea9610b78565b6001600160a01b031614610ecf5760405162461bcd60e51b815260040161055290611f0f565b6001600160a01b038116610ef55760405162461bcd60e51b815260040161055290611c5a565b610e5f81611158565b6001600160e01b031981166301ffc9a760e01b14919050565b6000908152600360205260409020546001600160a01b0316151590565b3390565b600081815260056020526040902080546001600160a01b0319166001600160a01b0384169081179091558190610f6d82610775565b6001600160a01b03167f8c5be1e5ebec7d5bd14f71427d1e84f3dd0314c0f7b2291e5b200ac8c7c3b92560405160405180910390a45050565b6000610fb182610f17565b610fcd5760405162461bcd60e51b815260040161055290611d52565b6000610fd883610775565b9050806001600160a01b0316846001600160a01b031614806110135750836001600160a01b03166110088461052b565b6001600160a01b0316145b8061102357506110238185610e62565b949350505050565b826001600160a01b031661103e82610775565b6001600160a01b0316146110645760405162461bcd60e51b815260040161055290611f44565b6001600160a01b03821661108a5760405162461bcd60e51b815260040161055290611cd7565b61109583838361060a565b6110a0600082610f38565b6001600160a01b03831660009081526004602052604081208054600192906110c99084906120b1565b90915550506001600160a01b03821660009081526004602052604081208054600192906110f7908490612085565b909155505060008181526003602052604080822080546001600160a01b0319166001600160a01b0386811691821790925591518493918716917fddf252ad1be2c89b69c2b068fc378daa952ba7f163c4a11628f55a4df523b3ef91a4505050565b600080546001600160a01b038381166001600160a01b0319831681178455604051919092169283917f8be0079c531659141344cd1fd0a4f28419497f9722a3daafe3b4186f6b6457e09190a35050565b6111b384848461102b565b6111bf8484848461146b565b610dbe5760405162461bcd60e51b815260040161055290611c08565b60408051602081019091526000815290565b60608161121257506040805180820190915260018152600360fc1b6020820152610494565b8160005b811561123c57806112268161212f565b91506112359050600a8361209d565b9150611216565b60008167ffffffffffffffff81111561126557634e487b7160e01b600052604160045260246000fd5b6040519080825280601f01601f19166020018201604052801561128f576020820181803683370190505b5090505b8415611023576112a46001836120b1565b91506112b1600a8661216e565b6112bc906030612085565b60f81b8183815181106112df57634e487b7160e01b600052603260045260246000fd5b60200101906001600160f81b031916908160001a905350611301600a8661209d565b9450611293565b60006113146064611586565b90506000611328662386f26fc10000611586565b6040805160a08101825285815260075460208083019190915291810183905260016060820181905260ff86166080830152600980549182018155600052815180519495509193849360049092027f6e1540171b6c0c960b71a7020d9f60077f6af931a8bbf590da0223dacf75c7af01926113a692849291019061172a565b50602082015160018201556040820151600282015560608201516003909101805460809093015160ff166401000000000264ff000000001963ffffffff90931663ffffffff19909416939093179190911691909117905560075461140b9033906115c0565b336001600160a01b03167f6fb3c15955c142bf9a8f9074abb7c8a1347e86788a48f69866154d92f9b8971460075484604051611448929190612077565b60405180910390a2600780549060006114608361212f565b919050555050505050565b600061147f846001600160a01b03166115da565b1561157b57836001600160a01b031663150b7a0261149b610f34565b8786866040518563ffffffff1660e01b81526004016114bd9493929190611ad2565b602060405180830381600087803b1580156114d757600080fd5b505af1925050508015611507575060408051601f3d908101601f19168201909252611504918101906119c9565b60015b611561573d808015611535576040519150601f19603f3d011682016040523d82523d6000602084013e61153a565b606091505b5080516115595760405162461bcd60e51b815260040161055290611c08565b805181602001fd5b6001600160e01b031916630a85bd0160e11b149050611023565b506001949350505050565b600080423360405160200161159c929190611a9e565b60408051601f1981840301815291905280516020909101209050610e40838261216e565b6107568282604051806020016040528060008152506115e0565b3b151590565b6115ea8383611613565b6115f7600084848461146b565b61060a5760405162461bcd60e51b815260040161055290611c08565b6001600160a01b0382166116395760405162461bcd60e51b815260040161055290611e8e565b61164281610f17565b1561165f5760405162461bcd60e51b815260040161055290611ca0565b61166b6000838361060a565b6001600160a01b0382166000908152600460205260408120805460019290611694908490612085565b909155505060008181526003602052604080822080546001600160a01b0319166001600160a01b03861690811790915590518392907fddf252ad1be2c89b69c2b068fc378daa952ba7f163c4a11628f55a4df523b3ef908290a45050565b6040518060a00160405280606081526020016000815260200160008152602001600063ffffffff168152602001600060ff1681525090565b828054611736906120f4565b90600052602060002090601f016020900481019282611758576000855561179e565b82601f1061177157805160ff191683800117855561179e565b8280016001018555821561179e579182015b8281111561179e578251825591602001919060010190611783565b506117aa9291506117ae565b5090565b5b808211156117aa57600081556001016117af565b600067ffffffffffffffff808411156117de576117de6121ae565b604051601f8501601f191681016020018281118282101715611802576118026121ae565b60405284815291508183850186101561181a57600080fd5b8484602083013760006020868301015250509392505050565b80356001600160a01b038116811461049457600080fd5b60006020828403121561185b578081fd5b610e4082611833565b60008060408385031215611876578081fd5b61187f83611833565b915061188d60208401611833565b90509250929050565b6000806000606084860312156118aa578081fd5b6118b384611833565b92506118c160208501611833565b9150604084013590509250925092565b600080600080608085870312156118e6578081fd5b6118ef85611833565b93506118fd60208601611833565b925060408501359150606085013567ffffffffffffffff81111561191f578182fd5b8501601f8101871361192f578182fd5b61193e878235602084016117c3565b91505092959194509250565b6000806040838503121561195c578182fd5b61196583611833565b915060208301358015158114611979578182fd5b809150509250929050565b60008060408385031215611996578182fd5b61199f83611833565b946020939093013593505050565b6000602082840312156119be578081fd5b8135610e40816121c4565b6000602082840312156119da578081fd5b8151610e40816121c4565b6000602082840312156119f6578081fd5b813567ffffffffffffffff811115611a0c578182fd5b8201601f81018413611a1c578182fd5b611023848235602084016117c3565b600060208284031215611a3c578081fd5b5035919050565b60008151808452611a5b8160208601602086016120c8565b601f01601f19169290920160200192915050565b60008351611a818184602088016120c8565b835190830190611a958183602088016120c8565b01949350505050565b91825260601b6bffffffffffffffffffffffff1916602082015260340190565b6001600160a01b0391909116815260200190565b6001600160a01b0385811682528416602082015260408101839052608060608201819052600090611b0590830184611a43565b9695505050505050565b60208082528251828201819052600091906040908185019080840286018301878501865b83811015611b9c57603f19898403018552815160a08151818652611b5982870182611a43565b838b0151878c0152898401518a88015260608085015163ffffffff169088015260809384015160ff16939096019290925250509386019390860190600101611b33565b509098975050505050505050565b901515815260200190565b600060208252610e406020830184611a43565b600060a08252611bdb60a0830188611a43565b905085602083015284604083015263ffffffff8416606083015260ff831660808301529695505050505050565b60208082526032908201527f4552433732313a207472616e7366657220746f206e6f6e20455243373231526560408201527131b2b4bb32b91034b6b83632b6b2b73a32b960711b606082015260800190565b60208082526026908201527f4f776e61626c653a206e6577206f776e657220697320746865207a65726f206160408201526564647265737360d01b606082015260800190565b6020808252601c908201527f4552433732313a20746f6b656e20616c7265616479206d696e74656400000000604082015260600190565b60208082526024908201527f4552433732313a207472616e7366657220746f20746865207a65726f206164646040820152637265737360e01b606082015260800190565b60208082526019908201527f4552433732313a20617070726f766520746f2063616c6c657200000000000000604082015260600190565b6020808252602c908201527f4552433732313a206f70657261746f7220717565727920666f72206e6f6e657860408201526b34b9ba32b73a103a37b5b2b760a11b606082015260800190565b60208082526038908201527f4552433732313a20617070726f76652063616c6c6572206973206e6f74206f7760408201527f6e6572206e6f7220617070726f76656420666f7220616c6c0000000000000000606082015260800190565b6020808252602a908201527f4552433732313a2062616c616e636520717565727920666f7220746865207a65604082015269726f206164647265737360b01b606082015260800190565b60208082526029908201527f4552433732313a206f776e657220717565727920666f72206e6f6e657869737460408201526832b73a103a37b5b2b760b91b606082015260800190565b6020808252818101527f4552433732313a206d696e7420746f20746865207a65726f2061646472657373604082015260600190565b6020808252602c908201527f4552433732313a20617070726f76656420717565727920666f72206e6f6e657860408201526b34b9ba32b73a103a37b5b2b760a11b606082015260800190565b6020808252818101527f4f776e61626c653a2063616c6c6572206973206e6f7420746865206f776e6572604082015260600190565b60208082526029908201527f4552433732313a207472616e73666572206f6620746f6b656e2074686174206960408201526839903737ba1037bbb760b91b606082015260800190565b6020808252602f908201527f4552433732314d657461646174613a2055524920717565727920666f72206e6f60408201526e3732bc34b9ba32b73a103a37b5b2b760891b606082015260800190565b60208082526021908201527f4552433732313a20617070726f76616c20746f2063757272656e74206f776e656040820152603960f91b606082015260800190565b60208082526031908201527f4552433732313a207472616e736665722063616c6c6572206973206e6f74206f6040820152701ddb995c881b9bdc88185c1c1c9bdd9959607a1b606082015260800190565b90815260200190565b918252602082015260400190565b6000821982111561209857612098612182565b500190565b6000826120ac576120ac612198565b500490565b6000828210156120c3576120c3612182565b500390565b60005b838110156120e35781810151838201526020016120cb565b83811115610dbe5750506000910152565b60028104600182168061210857607f821691505b6020821081141561212957634e487b7160e01b600052602260045260246000fd5b50919050565b600060001982141561214357612143612182565b5060010190565b600063ffffffff8083168181141561216457612164612182565b6001019392505050565b60008261217d5761217d612198565b500690565b634e487b7160e01b600052601160045260246000fd5b634e487b7160e01b600052601260045260246000fd5b634e487b7160e01b600052604160045260246000fd5b6001600160e01b031981168114610e5f57600080fdfea2646970667358221220ea77e66aae0b95928e72db8a7a9bee6e2c0d4e902dfbed7dbe1710fb45d7a2ec64736f6c63430008000033",
  "immutableReferences": {},
  "source": "// SPDX-License-Identifier: MIT\n\npragma solidity ^0.8.0;\n\nimport \"./TokemonFactory.sol\";\n\ncontract TokemonToken is TokemonFactory  {\n\n  constructor(string memory _name, string memory _symbol)\n    ERC721(_name, _symbol)\n  {}\n\n  // @dev update contract fee\n  // @param _fee the new fee\n  function updateFee(uint256 _fee) external onlyOwner() {\n    fee = _fee;\n  }\n\n  function withdraw() external payable onlyOwner() {\n    address payable _owner = payable(owner());\n    _owner.transfer(address(this).balance);\n  }\n\n  // @param _name the name of the tokemon\n  function _createLip(string memory _name) internal {\n    uint8 randRarity = uint8(_generateRandomNumber(100));\n    uint256 randDna = _generateRandomNumber(10**16);\n    Tokemon memory newTokemon = Tokemon(_name, COUNT, randDna, 1, randRarity);\n    tokemons.push(newTokemon);\n    _safeMint(msg.sender, COUNT);\n    emit NewTokemon(msg.sender, COUNT, randDna);\n    COUNT++;\n  }\n   \n  // Getters\n  function getLips() public view returns (Tokemon[] memory) {\n    return tokemons;\n  }\n\n  function getOwnerLips(address _owner) public view returns (Tokemon[] memory) {\n    Tokemon[] memory result = new Tokemon[](balanceOf(_owner));\n    uint256 counter = 0;\n    for (uint256 i = 0; i < tokemons.length; i++) {\n      if (ownerOf(i) == _owner) {\n        result[counter] = tokemons[i];\n        counter++;\n      }\n    }\n    return result;\n  }\n\n  // Actions\n  function levelUp(uint256 _lipId) public {\n    require(ownerOf(_lipId) == msg.sender);\n    Tokemon storage lip = tokemons[_lipId];\n    lip.level++;\n  }\n}\n",
  "sourcePath": "/Users/alvaroserranorivas/projects/tokemon/contracts/Tokemon.sol",
  "compiler": {
    "name": "solc",
    "version": "0.8.0+commit.c7dfd78e.Emscripten.clang"
  },
  "schemaVersion": "3.4.3",
  "updatedAt": "2021-09-25T18:08:34.532Z",
  "devdoc": {
    "kind": "dev",
    "methods": {
      "approve(address,uint256)": {
        "details": "See {IERC721-approve}."
      },
      "balanceOf(address)": {
        "details": "See {IERC721-balanceOf}."
      },
      "createRandomTokemon(string)": {
        "details": "Creates a new random tokemon"
      },
      "getApproved(uint256)": {
        "details": "See {IERC721-getApproved}."
      },
      "isApprovedForAll(address,address)": {
        "details": "See {IERC721-isApprovedForAll}."
      },
      "name()": {
        "details": "See {IERC721Metadata-name}."
      },
      "owner()": {
        "details": "Returns the address of the current owner."
      },
      "ownerOf(uint256)": {
        "details": "See {IERC721-ownerOf}."
      },
      "renounceOwnership()": {
        "details": "Leaves the contract without owner. It will not be possible to call `onlyOwner` functions anymore. Can only be called by the current owner. NOTE: Renouncing ownership will leave the contract without an owner, thereby removing any functionality that is only available to the owner."
      },
      "safeTransferFrom(address,address,uint256)": {
        "details": "See {IERC721-safeTransferFrom}."
      },
      "safeTransferFrom(address,address,uint256,bytes)": {
        "details": "See {IERC721-safeTransferFrom}."
      },
      "setApprovalForAll(address,bool)": {
        "details": "See {IERC721-setApprovalForAll}."
      },
      "supportsInterface(bytes4)": {
        "details": "See {IERC165-supportsInterface}."
      },
      "symbol()": {
        "details": "See {IERC721Metadata-symbol}."
      },
      "tokenURI(uint256)": {
        "details": "See {IERC721Metadata-tokenURI}."
      },
      "transferFrom(address,address,uint256)": {
        "details": "See {IERC721-transferFrom}."
      },
      "transferOwnership(address)": {
        "details": "Transfers ownership of the contract to a new account (`newOwner`). Can only be called by the current owner."
      }
    },
    "version": 1
  },
  "userdoc": {
    "kind": "user",
    "methods": {},
    "version": 1
  }
}