{
  "contractName": "TokemonToken",
  "abi": [
    {
      "inputs": [
        {
          "internalType": "string",
          "name": "_name",
          "type": "string"
        },
        {
          "internalType": "string",
          "name": "_symbol",
          "type": "string"
        }
      ],
      "stateMutability": "nonpayable",
      "type": "constructor"
    },
    {
      "anonymous": false,
      "inputs": [
        {
          "indexed": true,
          "internalType": "address",
          "name": "owner",
          "type": "address"
        },
        {
          "indexed": true,
          "internalType": "address",
          "name": "approved",
          "type": "address"
        },
        {
          "indexed": true,
          "internalType": "uint256",
          "name": "tokenId",
          "type": "uint256"
        }
      ],
      "name": "Approval",
      "type": "event"
    },
    {
      "anonymous": false,
      "inputs": [
        {
          "indexed": true,
          "internalType": "address",
          "name": "owner",
          "type": "address"
        },
        {
          "indexed": true,
          "internalType": "address",
          "name": "operator",
          "type": "address"
        },
        {
          "indexed": false,
          "internalType": "bool",
          "name": "approved",
          "type": "bool"
        }
      ],
      "name": "ApprovalForAll",
      "type": "event"
    },
    {
      "anonymous": false,
      "inputs": [
        {
          "indexed": true,
          "internalType": "address",
          "name": "owner",
          "type": "address"
        },
        {
          "indexed": false,
          "internalType": "uint256",
          "name": "id",
          "type": "uint256"
        },
        {
          "indexed": false,
          "internalType": "uint256",
          "name": "dna",
          "type": "uint256"
        }
      ],
      "name": "NewTokemon",
      "type": "event"
    },
    {
      "anonymous": false,
      "inputs": [
        {
          "indexed": true,
          "internalType": "address",
          "name": "previousOwner",
          "type": "address"
        },
        {
          "indexed": true,
          "internalType": "address",
          "name": "newOwner",
          "type": "address"
        }
      ],
      "name": "OwnershipTransferred",
      "type": "event"
    },
    {
      "anonymous": false,
      "inputs": [
        {
          "indexed": true,
          "internalType": "address",
          "name": "from",
          "type": "address"
        },
        {
          "indexed": true,
          "internalType": "address",
          "name": "to",
          "type": "address"
        },
        {
          "indexed": true,
          "internalType": "uint256",
          "name": "tokenId",
          "type": "uint256"
        }
      ],
      "name": "Transfer",
      "type": "event"
    },
    {
      "inputs": [
        {
          "internalType": "address",
          "name": "to",
          "type": "address"
        },
        {
          "internalType": "uint256",
          "name": "tokenId",
          "type": "uint256"
        }
      ],
      "name": "approve",
      "outputs": [],
      "stateMutability": "nonpayable",
      "type": "function"
    },
    {
      "inputs": [
        {
          "internalType": "address",
          "name": "owner",
          "type": "address"
        }
      ],
      "name": "balanceOf",
      "outputs": [
        {
          "internalType": "uint256",
          "name": "",
          "type": "uint256"
        }
      ],
      "stateMutability": "view",
      "type": "function",
      "constant": true
    },
    {
      "inputs": [
        {
          "internalType": "string",
          "name": "_name",
          "type": "string"
        }
      ],
      "name": "createRandomTokemon",
      "outputs": [],
      "stateMutability": "payable",
      "type": "function",
      "payable": true
    },
    {
      "inputs": [
        {
          "internalType": "uint256",
          "name": "tokenId",
          "type": "uint256"
        }
      ],
      "name": "getApproved",
      "outputs": [
        {
          "internalType": "address",
          "name": "",
          "type": "address"
        }
      ],
      "stateMutability": "view",
      "type": "function",
      "constant": true
    },
    {
      "inputs": [
        {
          "internalType": "address",
          "name": "owner",
          "type": "address"
        },
        {
          "internalType": "address",
          "name": "operator",
          "type": "address"
        }
      ],
      "name": "isApprovedForAll",
      "outputs": [
        {
          "internalType": "bool",
          "name": "",
          "type": "bool"
        }
      ],
      "stateMutability": "view",
      "type": "function",
      "constant": true
    },
    {
      "inputs": [],
      "name": "name",
      "outputs": [
        {
          "internalType": "string",
          "name": "",
          "type": "string"
        }
      ],
      "stateMutability": "view",
      "type": "function",
      "constant": true
    },
    {
      "inputs": [],
      "name": "owner",
      "outputs": [
        {
          "internalType": "address",
          "name": "",
          "type": "address"
        }
      ],
      "stateMutability": "view",
      "type": "function",
      "constant": true
    },
    {
      "inputs": [
        {
          "internalType": "uint256",
          "name": "tokenId",
          "type": "uint256"
        }
      ],
      "name": "ownerOf",
      "outputs": [
        {
          "internalType": "address",
          "name": "",
          "type": "address"
        }
      ],
      "stateMutability": "view",
      "type": "function",
      "constant": true
    },
    {
      "inputs": [],
      "name": "renounceOwnership",
      "outputs": [],
      "stateMutability": "nonpayable",
      "type": "function"
    },
    {
      "inputs": [
        {
          "internalType": "address",
          "name": "from",
          "type": "address"
        },
        {
          "internalType": "address",
          "name": "to",
          "type": "address"
        },
        {
          "internalType": "uint256",
          "name": "tokenId",
          "type": "uint256"
        }
      ],
      "name": "safeTransferFrom",
      "outputs": [],
      "stateMutability": "nonpayable",
      "type": "function"
    },
    {
      "inputs": [
        {
          "internalType": "address",
          "name": "from",
          "type": "address"
        },
        {
          "internalType": "address",
          "name": "to",
          "type": "address"
        },
        {
          "internalType": "uint256",
          "name": "tokenId",
          "type": "uint256"
        },
        {
          "internalType": "bytes",
          "name": "_data",
          "type": "bytes"
        }
      ],
      "name": "safeTransferFrom",
      "outputs": [],
      "stateMutability": "nonpayable",
      "type": "function"
    },
    {
      "inputs": [
        {
          "internalType": "address",
          "name": "operator",
          "type": "address"
        },
        {
          "internalType": "bool",
          "name": "approved",
          "type": "bool"
        }
      ],
      "name": "setApprovalForAll",
      "outputs": [],
      "stateMutability": "nonpayable",
      "type": "function"
    },
    {
      "inputs": [
        {
          "internalType": "bytes4",
          "name": "interfaceId",
          "type": "bytes4"
        }
      ],
      "name": "supportsInterface",
      "outputs": [
        {
          "internalType": "bool",
          "name": "",
          "type": "bool"
        }
      ],
      "stateMutability": "view",
      "type": "function",
      "constant": true
    },
    {
      "inputs": [],
      "name": "symbol",
      "outputs": [
        {
          "internalType": "string",
          "name": "",
          "type": "string"
        }
      ],
      "stateMutability": "view",
      "type": "function",
      "constant": true
    },
    {
      "inputs": [
        {
          "internalType": "uint256",
          "name": "",
          "type": "uint256"
        }
      ],
      "name": "tokemonToOwner",
      "outputs": [
        {
          "internalType": "address",
          "name": "",
          "type": "address"
        }
      ],
      "stateMutability": "view",
      "type": "function",
      "constant": true
    },
    {
      "inputs": [
        {
          "internalType": "uint256",
          "name": "",
          "type": "uint256"
        }
      ],
      "name": "tokemons",
      "outputs": [
        {
          "internalType": "string",
          "name": "name",
          "type": "string"
        },
        {
          "internalType": "uint256",
          "name": "id",
          "type": "uint256"
        },
        {
          "internalType": "uint256",
          "name": "dna",
          "type": "uint256"
        },
        {
          "internalType": "uint32",
          "name": "level",
          "type": "uint32"
        },
        {
          "internalType": "uint8",
          "name": "rarity",
          "type": "uint8"
        }
      ],
      "stateMutability": "view",
      "type": "function",
      "constant": true
    },
    {
      "inputs": [
        {
          "internalType": "uint256",
          "name": "tokenId",
          "type": "uint256"
        }
      ],
      "name": "tokenURI",
      "outputs": [
        {
          "internalType": "string",
          "name": "",
          "type": "string"
        }
      ],
      "stateMutability": "view",
      "type": "function",
      "constant": true
    },
    {
      "inputs": [
        {
          "internalType": "address",
          "name": "from",
          "type": "address"
        },
        {
          "internalType": "address",
          "name": "to",
          "type": "address"
        },
        {
          "internalType": "uint256",
          "name": "tokenId",
          "type": "uint256"
        }
      ],
      "name": "transferFrom",
      "outputs": [],
      "stateMutability": "nonpayable",
      "type": "function"
    },
    {
      "inputs": [
        {
          "internalType": "address",
          "name": "newOwner",
          "type": "address"
        }
      ],
      "name": "transferOwnership",
      "outputs": [],
      "stateMutability": "nonpayable",
      "type": "function"
    },
    {
      "inputs": [
        {
          "internalType": "uint256",
          "name": "_fee",
          "type": "uint256"
        }
      ],
      "name": "updateFee",
      "outputs": [],
      "stateMutability": "nonpayable",
      "type": "function"
    },
    {
      "inputs": [],
      "name": "withdraw",
      "outputs": [],
      "stateMutability": "payable",
      "type": "function",
      "payable": true
    },
    {
      "inputs": [],
      "name": "getTokemons",
      "outputs": [
        {
          "components": [
            {
              "internalType": "string",
              "name": "name",
              "type": "string"
            },
            {
              "internalType": "uint256",
              "name": "id",
              "type": "uint256"
            },
            {
              "internalType": "uint256",
              "name": "dna",
              "type": "uint256"
            },
            {
              "internalType": "uint32",
              "name": "level",
              "type": "uint32"
            },
            {
              "internalType": "uint8",
              "name": "rarity",
              "type": "uint8"
            }
          ],
          "internalType": "struct TokemonFactory.Tokemon[]",
          "name": "",
          "type": "tuple[]"
        }
      ],
      "stateMutability": "view",
      "type": "function",
      "constant": true
    },
    {
      "inputs": [
        {
          "internalType": "address",
          "name": "_owner",
          "type": "address"
        }
      ],
      "name": "getOwnerTokemons",
      "outputs": [
        {
          "components": [
            {
              "internalType": "string",
              "name": "name",
              "type": "string"
            },
            {
              "internalType": "uint256",
              "name": "id",
              "type": "uint256"
            },
            {
              "internalType": "uint256",
              "name": "dna",
              "type": "uint256"
            },
            {
              "internalType": "uint32",
              "name": "level",
              "type": "uint32"
            },
            {
              "internalType": "uint8",
              "name": "rarity",
              "type": "uint8"
            }
          ],
          "internalType": "struct TokemonFactory.Tokemon[]",
          "name": "",
          "type": "tuple[]"
        }
      ],
      "stateMutability": "view",
      "type": "function",
      "constant": true
    },
    {
      "inputs": [
        {
          "internalType": "uint256",
          "name": "_tokemonId",
          "type": "uint256"
        }
      ],
      "name": "levelUp",
      "outputs": [],
      "stateMutability": "nonpayable",
      "type": "function"
    }
  ],
  "bytecode": "0x60806040523480156200001157600080fd5b506040516200252138038062002521833981016040819052620000349162000225565b81816200004a6200004462000080565b62000084565b81516200005f906001906020850190620000d4565b50805162000075906002906020840190620000d4565b5050505050620002df565b3390565b600080546001600160a01b038381166001600160a01b0319831681178455604051919092169283917f8be0079c531659141344cd1fd0a4f28419497f9722a3daafe3b4186f6b6457e09190a35050565b828054620000e2906200028c565b90600052602060002090601f01602090048101928262000106576000855562000151565b82601f106200012157805160ff191683800117855562000151565b8280016001018555821562000151579182015b828111156200015157825182559160200191906001019062000134565b506200015f92915062000163565b5090565b5b808211156200015f576000815560010162000164565b600082601f8301126200018b578081fd5b81516001600160401b0380821115620001a857620001a8620002c9565b6040516020601f8401601f1916820181018381118382101715620001d057620001d0620002c9565b6040528382528584018101871015620001e7578485fd5b8492505b838310156200020a5785830181015182840182015291820191620001eb565b838311156200021b57848185840101525b5095945050505050565b6000806040838503121562000238578182fd5b82516001600160401b03808211156200024f578384fd5b6200025d868387016200017a565b9350602085015191508082111562000273578283fd5b5062000282858286016200017a565b9150509250929050565b600281046001821680620002a157607f821691505b60208210811415620002c357634e487b7160e01b600052602260045260246000fd5b50919050565b634e487b7160e01b600052604160045260246000fd5b61223280620002ef6000396000f3fe60806040526004361061014b5760003560e01c806377870818116100b6578063b88d4fde1161006f578063b88d4fde1461039e578063c87b56dd146103be578063ddc538f0146103de578063e985e9c5146103f1578063eeefa9c514610411578063f2fde38b146104315761014b565b806377870818146102e35780638da5cb5b146103035780639012c4a81461031857806395d89b41146103385780639854c1d01461034d578063a22cb4651461037e5761014b565b806323b872dd1161010857806323b872dd146102395780633ccfd60b1461025957806342842e0e146102615780636352211e1461028157806370a08231146102a1578063715018a6146102ce5761014b565b806301ffc9a71461015057806306fdde0314610186578063081812fc146101a8578063095ea7b3146101d55780630ce90ec2146101f75780631fe77a9814610217575b600080fd5b34801561015c57600080fd5b5061017061016b3660046119cf565b610451565b60405161017d9190611bcc565b60405180910390f35b34801561019257600080fd5b5061019b610499565b60405161017d9190611bd7565b3480156101b457600080fd5b506101c86101c3366004611a4d565b61052b565b60405161017d9190611ae0565b3480156101e157600080fd5b506101f56101f03660046119a6565b610577565b005b34801561020357600080fd5b506101f5610212366004611a4d565b61060f565b34801561022357600080fd5b5061022c6106bf565b60405161017d9190611b31565b34801561024557600080fd5b506101f56102543660046118b8565b6107eb565b6101f5610823565b34801561026d57600080fd5b506101f561027c3660046118b8565b6108a8565b34801561028d57600080fd5b506101c861029c366004611a4d565b6108c3565b3480156102ad57600080fd5b506102c16102bc36600461186c565b6108f8565b60405161017d9190612090565b3480156102da57600080fd5b506101f561093c565b3480156102ef57600080fd5b506101c86102fe366004611a4d565b610987565b34801561030f57600080fd5b506101c86109a2565b34801561032457600080fd5b506101f5610333366004611a4d565b6109b1565b34801561034457600080fd5b5061019b6109f5565b34801561035957600080fd5b5061036d610368366004611a4d565b610a04565b60405161017d959493929190611bea565b34801561038a57600080fd5b506101f561039936600461196c565b610ae1565b3480156103aa57600080fd5b506101f56103b93660046118f3565b610baf565b3480156103ca57600080fd5b5061019b6103d9366004611a4d565b610bee565b6101f56103ec366004611a07565b610c71565b3480156103fd57600080fd5b5061017061040c366004611886565b610c8c565b34801561041d57600080fd5b5061022c61042c36600461186c565b610cba565b34801561043d57600080fd5b506101f561044c36600461186c565b610eb2565b60006001600160e01b031982166380ac58cd60e01b148061048257506001600160e01b03198216635b5e139f60e01b145b80610491575061049182610f20565b90505b919050565b6060600180546104a890612116565b80601f01602080910402602001604051908101604052809291908181526020018280546104d490612116565b80156105215780601f106104f657610100808354040283529160200191610521565b820191906000526020600020905b81548152906001019060200180831161050457829003601f168201915b5050505050905090565b600061053682610f39565b61055b5760405162461bcd60e51b815260040161055290611ee5565b60405180910390fd5b506000908152600560205260409020546001600160a01b031690565b6000610582826108c3565b9050806001600160a01b0316836001600160a01b031614156105b65760405162461bcd60e51b815260040161055290611ffe565b806001600160a01b03166105c8610f56565b6001600160a01b031614806105e457506105e48161040c610f56565b6106005760405162461bcd60e51b815260040161055290611dc0565b61060a8383610f5a565b505050565b610617610f56565b6001600160a01b03166106286109a2565b6001600160a01b03161461064e5760405162461bcd60e51b815260040161055290611f31565b60006009828154811061067157634e487b7160e01b600052603260045260246000fd5b6000918252602082206003600490920201908101805491935063ffffffff9091169161069c8361216c565b91906101000a81548163ffffffff021916908363ffffffff160217905550505050565b60606009805480602002602001604051908101604052809291908181526020016000905b828210156107e257838290600052602060002090600402016040518060a001604052908160008201805461071690612116565b80601f016020809104026020016040519081016040528092919081815260200182805461074290612116565b801561078f5780601f106107645761010080835404028352916020019161078f565b820191906000526020600020905b81548152906001019060200180831161077257829003601f168201915b50505091835250506001828101546020808401919091526002840154604084015260039093015463ffffffff81166060840152640100000000900460ff16608090920191909152918352920191016106e3565b50505050905090565b6107fc6107f6610f56565b82610fc8565b6108185760405162461bcd60e51b81526004016105529061203f565b61060a83838361104d565b61082b610f56565b6001600160a01b031661083c6109a2565b6001600160a01b0316146108625760405162461bcd60e51b815260040161055290611f31565b600061086c6109a2565b6040519091506001600160a01b038216904780156108fc02916000818181858888f193505050501580156108a4573d6000803e3d6000fd5b5050565b61060a83838360405180602001604052806000815250610baf565b6000818152600360205260408120546001600160a01b0316806104915760405162461bcd60e51b815260040161055290611e67565b60006001600160a01b0382166109205760405162461bcd60e51b815260040161055290611e1d565b506001600160a01b031660009081526004602052604090205490565b610944610f56565b6001600160a01b03166109556109a2565b6001600160a01b03161461097b5760405162461bcd60e51b815260040161055290611f31565b610985600061117a565b565b600a602052600090815260409020546001600160a01b031681565b6000546001600160a01b031690565b6109b9610f56565b6001600160a01b03166109ca6109a2565b6001600160a01b0316146109f05760405162461bcd60e51b815260040161055290611f31565b600755565b6060600280546104a890612116565b60098181548110610a1457600080fd5b9060005260206000209060040201600091509050806000018054610a3790612116565b80601f0160208091040260200160405190810160405280929190818152602001828054610a6390612116565b8015610ab05780601f10610a8557610100808354040283529160200191610ab0565b820191906000526020600020905b815481529060010190602001808311610a9357829003601f168201915b50505050600183015460028401546003909401549293909290915063ffffffff811690640100000000900460ff1685565b610ae9610f56565b6001600160a01b0316826001600160a01b03161415610b1a5760405162461bcd60e51b815260040161055290611d3d565b8060066000610b27610f56565b6001600160a01b03908116825260208083019390935260409182016000908120918716808252919093529120805460ff191692151592909217909155610b6b610f56565b6001600160a01b03167f17307eab39ab6107e8899845ad3d59bd9653f200f220920489ca2b5937696c3183604051610ba39190611bcc565b60405180910390a35050565b610bc0610bba610f56565b83610fc8565b610bdc5760405162461bcd60e51b81526004016105529061203f565b610be8848484846111ca565b50505050565b6060610bf982610f39565b610c155760405162461bcd60e51b815260040161055290611faf565b6000610c1f6111fd565b90506000815111610c3f5760405180602001604052806000815250610c6a565b80610c498461120f565b604051602001610c5a929190611a91565b6040516020818303038152906040525b9392505050565b600754341015610c8057600080fd5b610c898161132a565b50565b6001600160a01b03918216600090815260066020908152604080832093909416825291909152205460ff1690565b60606000610cc7836108f8565b67ffffffffffffffff811115610ced57634e487b7160e01b600052604160045260246000fd5b604051908082528060200260200182016040528015610d2657816020015b610d13611714565b815260200190600190039081610d0b5790505b5090506000805b600954811015610ea957846001600160a01b0316610d4a826108c3565b6001600160a01b03161415610e975760098181548110610d7a57634e487b7160e01b600052603260045260246000fd5b90600052602060002090600402016040518060a0016040529081600082018054610da390612116565b80601f0160208091040260200160405190810160405280929190818152602001828054610dcf90612116565b8015610e1c5780601f10610df157610100808354040283529160200191610e1c565b820191906000526020600020905b815481529060010190602001808311610dff57829003601f168201915b5050509183525050600182015460208201526002820154604082015260039091015463ffffffff81166060830152640100000000900460ff166080909101528351849083908110610e7d57634e487b7160e01b600052603260045260246000fd5b60200260200101819052508180610e9390612151565b9250505b80610ea181612151565b915050610d2d565b50909392505050565b610eba610f56565b6001600160a01b0316610ecb6109a2565b6001600160a01b031614610ef15760405162461bcd60e51b815260040161055290611f31565b6001600160a01b038116610f175760405162461bcd60e51b815260040161055290611c7c565b610c898161117a565b6001600160e01b031981166301ffc9a760e01b14919050565b6000908152600360205260409020546001600160a01b0316151590565b3390565b600081815260056020526040902080546001600160a01b0319166001600160a01b0384169081179091558190610f8f826108c3565b6001600160a01b03167f8c5be1e5ebec7d5bd14f71427d1e84f3dd0314c0f7b2291e5b200ac8c7c3b92560405160405180910390a45050565b6000610fd382610f39565b610fef5760405162461bcd60e51b815260040161055290611d74565b6000610ffa836108c3565b9050806001600160a01b0316846001600160a01b031614806110355750836001600160a01b031661102a8461052b565b6001600160a01b0316145b8061104557506110458185610c8c565b949350505050565b826001600160a01b0316611060826108c3565b6001600160a01b0316146110865760405162461bcd60e51b815260040161055290611f66565b6001600160a01b0382166110ac5760405162461bcd60e51b815260040161055290611cf9565b6110b783838361060a565b6110c2600082610f5a565b6001600160a01b03831660009081526004602052604081208054600192906110eb9084906120d3565b90915550506001600160a01b03821660009081526004602052604081208054600192906111199084906120a7565b909155505060008181526003602052604080822080546001600160a01b0319166001600160a01b0386811691821790925591518493918716917fddf252ad1be2c89b69c2b068fc378daa952ba7f163c4a11628f55a4df523b3ef91a4505050565b600080546001600160a01b038381166001600160a01b0319831681178455604051919092169283917f8be0079c531659141344cd1fd0a4f28419497f9722a3daafe3b4186f6b6457e09190a35050565b6111d584848461104d565b6111e18484848461148d565b610be85760405162461bcd60e51b815260040161055290611c2a565b60408051602081019091526000815290565b60608161123457506040805180820190915260018152600360fc1b6020820152610494565b8160005b811561125e578061124881612151565b91506112579050600a836120bf565b9150611238565b60008167ffffffffffffffff81111561128757634e487b7160e01b600052604160045260246000fd5b6040519080825280601f01601f1916602001820160405280156112b1576020820181803683370190505b5090505b8415611045576112c66001836120d3565b91506112d3600a86612190565b6112de9060306120a7565b60f81b81838151811061130157634e487b7160e01b600052603260045260246000fd5b60200101906001600160f81b031916908160001a905350611323600a866120bf565b94506112b5565b600061133660646115a8565b9050600061134a662386f26fc100006115a8565b6040805160a08101825285815260085460208083019190915291810183905260016060820181905260ff86166080830152600980549182018155600052815180519495509193849360049092027f6e1540171b6c0c960b71a7020d9f60077f6af931a8bbf590da0223dacf75c7af01926113c892849291019061174c565b50602082015160018201556040820151600282015560608201516003909101805460809093015160ff166401000000000264ff000000001963ffffffff90931663ffffffff19909416939093179190911691909117905560085461142d9033906115e2565b336001600160a01b03167f6fb3c15955c142bf9a8f9074abb7c8a1347e86788a48f69866154d92f9b897146008548460405161146a929190612099565b60405180910390a26008805490600061148283612151565b919050555050505050565b60006114a1846001600160a01b03166115fc565b1561159d57836001600160a01b031663150b7a026114bd610f56565b8786866040518563ffffffff1660e01b81526004016114df9493929190611af4565b602060405180830381600087803b1580156114f957600080fd5b505af1925050508015611529575060408051601f3d908101601f19168201909252611526918101906119eb565b60015b611583573d808015611557576040519150601f19603f3d011682016040523d82523d6000602084013e61155c565b606091505b50805161157b5760405162461bcd60e51b815260040161055290611c2a565b805181602001fd5b6001600160e01b031916630a85bd0160e11b149050611045565b506001949350505050565b60008042336040516020016115be929190611ac0565b60408051601f1981840301815291905280516020909101209050610c6a8382612190565b6108a4828260405180602001604052806000815250611602565b3b151590565b61160c8383611635565b611619600084848461148d565b61060a5760405162461bcd60e51b815260040161055290611c2a565b6001600160a01b03821661165b5760405162461bcd60e51b815260040161055290611eb0565b61166481610f39565b156116815760405162461bcd60e51b815260040161055290611cc2565b61168d6000838361060a565b6001600160a01b03821660009081526004602052604081208054600192906116b69084906120a7565b909155505060008181526003602052604080822080546001600160a01b0319166001600160a01b03861690811790915590518392907fddf252ad1be2c89b69c2b068fc378daa952ba7f163c4a11628f55a4df523b3ef908290a45050565b6040518060a00160405280606081526020016000815260200160008152602001600063ffffffff168152602001600060ff1681525090565b82805461175890612116565b90600052602060002090601f01602090048101928261177a57600085556117c0565b82601f1061179357805160ff19168380011785556117c0565b828001600101855582156117c0579182015b828111156117c05782518255916020019190600101906117a5565b506117cc9291506117d0565b5090565b5b808211156117cc57600081556001016117d1565b600067ffffffffffffffff80841115611800576118006121d0565b604051601f8501601f191681016020018281118282101715611824576118246121d0565b60405284815291508183850186101561183c57600080fd5b8484602083013760006020868301015250509392505050565b80356001600160a01b038116811461049457600080fd5b60006020828403121561187d578081fd5b610c6a82611855565b60008060408385031215611898578081fd5b6118a183611855565b91506118af60208401611855565b90509250929050565b6000806000606084860312156118cc578081fd5b6118d584611855565b92506118e360208501611855565b9150604084013590509250925092565b60008060008060808587031215611908578081fd5b61191185611855565b935061191f60208601611855565b925060408501359150606085013567ffffffffffffffff811115611941578182fd5b8501601f81018713611951578182fd5b611960878235602084016117e5565b91505092959194509250565b6000806040838503121561197e578182fd5b61198783611855565b91506020830135801515811461199b578182fd5b809150509250929050565b600080604083850312156119b8578182fd5b6119c183611855565b946020939093013593505050565b6000602082840312156119e0578081fd5b8135610c6a816121e6565b6000602082840312156119fc578081fd5b8151610c6a816121e6565b600060208284031215611a18578081fd5b813567ffffffffffffffff811115611a2e578182fd5b8201601f81018413611a3e578182fd5b611045848235602084016117e5565b600060208284031215611a5e578081fd5b5035919050565b60008151808452611a7d8160208601602086016120ea565b601f01601f19169290920160200192915050565b60008351611aa38184602088016120ea565b835190830190611ab78183602088016120ea565b01949350505050565b91825260601b6bffffffffffffffffffffffff1916602082015260340190565b6001600160a01b0391909116815260200190565b6001600160a01b0385811682528416602082015260408101839052608060608201819052600090611b2790830184611a65565b9695505050505050565b60208082528251828201819052600091906040908185019080840286018301878501865b83811015611bbe57603f19898403018552815160a08151818652611b7b82870182611a65565b838b0151878c0152898401518a88015260608085015163ffffffff169088015260809384015160ff16939096019290925250509386019390860190600101611b55565b509098975050505050505050565b901515815260200190565b600060208252610c6a6020830184611a65565b600060a08252611bfd60a0830188611a65565b905085602083015284604083015263ffffffff8416606083015260ff831660808301529695505050505050565b60208082526032908201527f4552433732313a207472616e7366657220746f206e6f6e20455243373231526560408201527131b2b4bb32b91034b6b83632b6b2b73a32b960711b606082015260800190565b60208082526026908201527f4f776e61626c653a206e6577206f776e657220697320746865207a65726f206160408201526564647265737360d01b606082015260800190565b6020808252601c908201527f4552433732313a20746f6b656e20616c7265616479206d696e74656400000000604082015260600190565b60208082526024908201527f4552433732313a207472616e7366657220746f20746865207a65726f206164646040820152637265737360e01b606082015260800190565b60208082526019908201527f4552433732313a20617070726f766520746f2063616c6c657200000000000000604082015260600190565b6020808252602c908201527f4552433732313a206f70657261746f7220717565727920666f72206e6f6e657860408201526b34b9ba32b73a103a37b5b2b760a11b606082015260800190565b60208082526038908201527f4552433732313a20617070726f76652063616c6c6572206973206e6f74206f7760408201527f6e6572206e6f7220617070726f76656420666f7220616c6c0000000000000000606082015260800190565b6020808252602a908201527f4552433732313a2062616c616e636520717565727920666f7220746865207a65604082015269726f206164647265737360b01b606082015260800190565b60208082526029908201527f4552433732313a206f776e657220717565727920666f72206e6f6e657869737460408201526832b73a103a37b5b2b760b91b606082015260800190565b6020808252818101527f4552433732313a206d696e7420746f20746865207a65726f2061646472657373604082015260600190565b6020808252602c908201527f4552433732313a20617070726f76656420717565727920666f72206e6f6e657860408201526b34b9ba32b73a103a37b5b2b760a11b606082015260800190565b6020808252818101527f4f776e61626c653a2063616c6c6572206973206e6f7420746865206f776e6572604082015260600190565b60208082526029908201527f4552433732313a207472616e73666572206f6620746f6b656e2074686174206960408201526839903737ba1037bbb760b91b606082015260800190565b6020808252602f908201527f4552433732314d657461646174613a2055524920717565727920666f72206e6f60408201526e3732bc34b9ba32b73a103a37b5b2b760891b606082015260800190565b60208082526021908201527f4552433732313a20617070726f76616c20746f2063757272656e74206f776e656040820152603960f91b606082015260800190565b60208082526031908201527f4552433732313a207472616e736665722063616c6c6572206973206e6f74206f6040820152701ddb995c881b9bdc88185c1c1c9bdd9959607a1b606082015260800190565b90815260200190565b918252602082015260400190565b600082198211156120ba576120ba6121a4565b500190565b6000826120ce576120ce6121ba565b500490565b6000828210156120e5576120e56121a4565b500390565b60005b838110156121055781810151838201526020016120ed565b83811115610be85750506000910152565b60028104600182168061212a57607f821691505b6020821081141561214b57634e487b7160e01b600052602260045260246000fd5b50919050565b6000600019821415612165576121656121a4565b5060010190565b600063ffffffff80831681811415612186576121866121a4565b6001019392505050565b60008261219f5761219f6121ba565b500690565b634e487b7160e01b600052601160045260246000fd5b634e487b7160e01b600052601260045260246000fd5b634e487b7160e01b600052604160045260246000fd5b6001600160e01b031981168114610c8957600080fdfea2646970667358221220416ba5d9a06a9c37473dcca502a01607d51410f13df3e5faf87b99d4b53e0eb664736f6c63430008000033",
  "immutableReferences": {},
  "source": "// SPDX-License-Identifier: MIT\n\npragma solidity ^0.8.0;\n\nimport \"./TokemonFactory.sol\";\n\ncontract TokemonToken is TokemonFactory  {\n\n  constructor(string memory _name, string memory _symbol)\n    ERC721(_name, _symbol)\n  {}\n\n  /**\n  * @dev Token owner can withdraw\n  */\n  function withdraw() external onlyOwner() payable {\n    address payable _owner = payable(owner());\n    _owner.transfer(address(this).balance);\n  }\n\n  // GETTERS\n  /** @dev get tokemons\n  */\n  function getTokemons() public view returns(Tokemon[] memory) {\n    return tokemons;\n  }\n\n  /** @dev Get tokemons by owner\n  */\n  function getOwnerTokemons(address _owner) public view returns (Tokemon[] memory) {\n    Tokemon[] memory ownerTokemons = new Tokemon[](balanceOf(_owner));\n    uint256 ownerTokemonCount = 0;\n    for (uint256 i = 0; i < tokemons.length; i++) {\n      if (ownerOf(i) == _owner) {\n        ownerTokemons[i] = tokemons[i];\n        ownerTokemonCount++;\n      }\n    }\n    return ownerTokemons;\n  }\n\n  //SETTERS\n  /**\n  * @dev Level up a tokemon\n  * @param _tokemonId The id of the tokemon to level up\n  * requires that _tokemonId is owned by the caller\n  */\n  function levelUp(uint256 _tokemonId) public onlyOwner() {\n    Tokemon storage tokemon = tokemons[_tokemonId];\n    tokemon.level++;\n  }\n}\n",
  "sourcePath": "/Users/alvaroserranorivas/projects/tokemon/contracts/TokemonToken.sol",
  "compiler": {
    "name": "solc",
    "version": "0.8.0+commit.c7dfd78e.Emscripten.clang"
  },
  "schemaVersion": "3.4.3",
  "updatedAt": "2021-09-26T12:15:08.765Z",
  "networkType": "ethereum",
  "devdoc": {
    "kind": "dev",
    "methods": {
      "approve(address,uint256)": {
        "details": "See {IERC721-approve}."
      },
      "balanceOf(address)": {
        "details": "See {IERC721-balanceOf}."
      },
      "createRandomTokemon(string)": {
        "details": "Creates a new random tokemon"
      },
      "getApproved(uint256)": {
        "details": "See {IERC721-getApproved}."
      },
      "getOwnerTokemons(address)": {
        "details": "Get tokemons by owner"
      },
      "getTokemons()": {
        "details": "get tokemons"
      },
      "isApprovedForAll(address,address)": {
        "details": "See {IERC721-isApprovedForAll}."
      },
      "levelUp(uint256)": {
        "details": "Level up a tokemon",
        "params": {
          "_tokemonId": "The id of the tokemon to level up requires that _tokemonId is owned by the caller"
        }
      },
      "name()": {
        "details": "See {IERC721Metadata-name}."
      },
      "owner()": {
        "details": "Returns the address of the current owner."
      },
      "ownerOf(uint256)": {
        "details": "See {IERC721-ownerOf}."
      },
      "renounceOwnership()": {
        "details": "Leaves the contract without owner. It will not be possible to call `onlyOwner` functions anymore. Can only be called by the current owner. NOTE: Renouncing ownership will leave the contract without an owner, thereby removing any functionality that is only available to the owner."
      },
      "safeTransferFrom(address,address,uint256)": {
        "details": "See {IERC721-safeTransferFrom}."
      },
      "safeTransferFrom(address,address,uint256,bytes)": {
        "details": "See {IERC721-safeTransferFrom}."
      },
      "setApprovalForAll(address,bool)": {
        "details": "See {IERC721-setApprovalForAll}."
      },
      "supportsInterface(bytes4)": {
        "details": "See {IERC165-supportsInterface}."
      },
      "symbol()": {
        "details": "See {IERC721Metadata-symbol}."
      },
      "tokenURI(uint256)": {
        "details": "See {IERC721Metadata-tokenURI}."
      },
      "transferFrom(address,address,uint256)": {
        "details": "See {IERC721-transferFrom}."
      },
      "transferOwnership(address)": {
        "details": "Transfers ownership of the contract to a new account (`newOwner`). Can only be called by the current owner."
      },
      "updateFee(uint256)": {
        "details": "Token owner can update the fee",
        "params": {
          "_fee": "The new fee"
        }
      },
      "withdraw()": {
        "details": "Token owner can withdraw"
      }
    },
    "version": 1
  },
  "userdoc": {
    "kind": "user",
    "methods": {},
    "version": 1
  }
}